{
  "contractName": "votingContract",
  "abi": [
    {
      "inputs": [
        {
          "internalType": "bytes32",
          "name": "ProposalNames",
          "type": "bytes32"
        }
      ],
      "stateMutability": "nonpayable",
      "type": "constructor"
    },
    {
      "inputs": [
        {
          "internalType": "address",
          "name": "",
          "type": "address"
        }
      ],
      "name": "Voters",
      "outputs": [
        {
          "internalType": "uint256",
          "name": "weight",
          "type": "uint256"
        },
        {
          "internalType": "bool",
          "name": "voted",
          "type": "bool"
        },
        {
          "internalType": "address",
          "name": "delegate",
          "type": "address"
        },
        {
          "internalType": "uint256",
          "name": "vote",
          "type": "uint256"
        }
      ],
      "stateMutability": "view",
      "type": "function"
    },
    {
      "inputs": [
        {
          "internalType": "uint256",
          "name": "",
          "type": "uint256"
        }
      ],
      "name": "allProposals",
      "outputs": [
        {
          "internalType": "bytes32",
          "name": "name",
          "type": "bytes32"
        },
        {
          "internalType": "uint256",
          "name": "votecount",
          "type": "uint256"
        }
      ],
      "stateMutability": "view",
      "type": "function"
    },
    {
      "inputs": [],
      "name": "chairPerson",
      "outputs": [
        {
          "internalType": "address",
          "name": "",
          "type": "address"
        }
      ],
      "stateMutability": "view",
      "type": "function"
    },
    {
      "inputs": [
        {
          "internalType": "address",
          "name": "voter",
          "type": "address"
        }
      ],
      "name": "allowToVote",
      "outputs": [],
      "stateMutability": "nonpayable",
      "type": "function"
    },
    {
      "inputs": [
        {
          "internalType": "address",
          "name": "to",
          "type": "address"
        }
      ],
      "name": "delegate",
      "outputs": [],
      "stateMutability": "nonpayable",
      "type": "function"
    }
  ],
  "bytecode": "0x60806040523480156200001157600080fd5b5060405162000cc238038062000cc28339818101604052810190620000379190620001e0565b336000806101000a81548173ffffffffffffffffffffffffffffffffffffffff021916908373ffffffffffffffffffffffffffffffffffffffff1602179055506001600260008060009054906101000a900473ffffffffffffffffffffffffffffffffffffffff1673ffffffffffffffffffffffffffffffffffffffff1673ffffffffffffffffffffffffffffffffffffffff1681526020019081526020016000206000018190555060005b602060ff1681101562000198576001604051806040016040528084846020811062000113576200011262000212565b5b1a60f81b7effffffffffffffffffffffffffffffffffffffffffffffffffffffffffffff19168152602001600081525090806001815401808255809150506001900390600052602060002090600202016000909190919091506000820151816000015560208201518160010155505080806200018f906200027a565b915050620000e3565b5050620002c8565b600080fd5b6000819050919050565b620001ba81620001a5565b8114620001c657600080fd5b50565b600081519050620001da81620001af565b92915050565b600060208284031215620001f957620001f8620001a0565b5b60006200020984828501620001c9565b91505092915050565b7f4e487b7100000000000000000000000000000000000000000000000000000000600052603260045260246000fd5b7f4e487b7100000000000000000000000000000000000000000000000000000000600052601160045260246000fd5b6000819050919050565b6000620002878262000270565b91507fffffffffffffffffffffffffffffffffffffffffffffffffffffffffffffffff821415620002bd57620002bc62000241565b5b600182019050919050565b6109ea80620002d86000396000f3fe608060405234801561001057600080fd5b50600436106100575760003560e01c80635c19a95c1461005c578063938351b814610078578063a82cd0b2146100a9578063d4d4b5ac146100c5578063fdedaa8a146100e3575b600080fd5b61007660048036038101906100719190610688565b610116565b005b610092600480360381019061008d91906106eb565b6103b8565b6040516100a0929190610740565b60405180910390f35b6100c360048036038101906100be9190610688565b6103ec565b005b6100cd6105a4565b6040516100da9190610778565b60405180910390f35b6100fd60048036038101906100f89190610688565b6105c8565b60405161010d94939291906107ae565b60405180910390f35b6000600260003373ffffffffffffffffffffffffffffffffffffffff1673ffffffffffffffffffffffffffffffffffffffff16815260200190815260200160002090508060010160009054906101000a900460ff16156101ab576040517f08c379a00000000000000000000000000000000000000000000000000000000081526004016101a290610850565b60405180910390fd5b3373ffffffffffffffffffffffffffffffffffffffff168273ffffffffffffffffffffffffffffffffffffffff16141561021a576040517f08c379a0000000000000000000000000000000000000000000000000000000008152600401610211906108bc565b60405180910390fd5b5b600073ffffffffffffffffffffffffffffffffffffffff16600260008473ffffffffffffffffffffffffffffffffffffffff1673ffffffffffffffffffffffffffffffffffffffff16815260200190815260200160002060010160019054906101000a900473ffffffffffffffffffffffffffffffffffffffff1673ffffffffffffffffffffffffffffffffffffffff16146103b457600260008373ffffffffffffffffffffffffffffffffffffffff1673ffffffffffffffffffffffffffffffffffffffff16815260200190815260200160002060010160019054906101000a900473ffffffffffffffffffffffffffffffffffffffff1691503373ffffffffffffffffffffffffffffffffffffffff168273ffffffffffffffffffffffffffffffffffffffff16141561034f57600080fd5b60018160010160006101000a81548160ff021916908315150217905550818160010160016101000a81548173ffffffffffffffffffffffffffffffffffffffff021916908373ffffffffffffffffffffffffffffffffffffffff16021790555061021b565b5050565b600181815481106103c857600080fd5b90600052602060002090600202016000915090508060000154908060010154905082565b3373ffffffffffffffffffffffffffffffffffffffff1660008054906101000a900473ffffffffffffffffffffffffffffffffffffffff1673ffffffffffffffffffffffffffffffffffffffff161461047a576040517f08c379a000000000000000000000000000000000000000000000000000000000815260040161047190610928565b60405180910390fd5b600260008273ffffffffffffffffffffffffffffffffffffffff1673ffffffffffffffffffffffffffffffffffffffff16815260200190815260200160002060010160009054906101000a900460ff161561050a576040517f08c379a000000000000000000000000000000000000000000000000000000000815260040161050190610994565b60405180910390fd5b6000600260008373ffffffffffffffffffffffffffffffffffffffff1673ffffffffffffffffffffffffffffffffffffffff168152602001908152602001600020600001541461055957600080fd5b6001600260008373ffffffffffffffffffffffffffffffffffffffff1673ffffffffffffffffffffffffffffffffffffffff1681526020019081526020016000206000018190555050565b60008054906101000a900473ffffffffffffffffffffffffffffffffffffffff1681565b60026020528060005260406000206000915090508060000154908060010160009054906101000a900460ff16908060010160019054906101000a900473ffffffffffffffffffffffffffffffffffffffff16908060020154905084565b600080fd5b600073ffffffffffffffffffffffffffffffffffffffff82169050919050565b60006106558261062a565b9050919050565b6106658161064a565b811461067057600080fd5b50565b6000813590506106828161065c565b92915050565b60006020828403121561069e5761069d610625565b5b60006106ac84828501610673565b91505092915050565b6000819050919050565b6106c8816106b5565b81146106d357600080fd5b50565b6000813590506106e5816106bf565b92915050565b60006020828403121561070157610700610625565b5b600061070f848285016106d6565b91505092915050565b6000819050919050565b61072b81610718565b82525050565b61073a816106b5565b82525050565b60006040820190506107556000830185610722565b6107626020830184610731565b9392505050565b6107728161064a565b82525050565b600060208201905061078d6000830184610769565b92915050565b60008115159050919050565b6107a881610793565b82525050565b60006080820190506107c36000830187610731565b6107d0602083018661079f565b6107dd6040830185610769565b6107ea6060830184610731565b95945050505050565b600082825260208201905092915050565b7f596f7527766520566f74656420416c7265616479000000000000000000000000600082015250565b600061083a6014836107f3565b915061084582610804565b602082019050919050565b600060208201905081810360008301526108698161082d565b9050919050565b7f596f752063616e742064656c656761746520746f20796f757273656c66000000600082015250565b60006108a6601d836107f3565b91506108b182610870565b602082019050919050565b600060208201905081810360008301526108d581610899565b9050919050565b7f4f6e6c792041646d696e206861732074686520726967687420746f20566f7465600082015250565b60006109126020836107f3565b915061091d826108dc565b602082019050919050565b6000602082019050818103600083015261094181610905565b9050919050565b7f566f74657220616c726561647920566f74656400000000000000000000000000600082015250565b600061097e6013836107f3565b915061098982610948565b602082019050919050565b600060208201905081810360008301526109ad81610971565b905091905056fea2646970667358221220c0b89d8735c1a5ff17294244f963be5a9f07a6c06975109e700fd449680b1c4464736f6c634300080b0033",
  "immutableReferences": {},
  "source": "// SPDX-License-Identifier: MIT\npragma solidity >=0.4.22 <0.9.0;\n\n/// @title Voting Contract\n/// @author Joseph Adewunmi\n/// @notice A voting contract that allows\n\ncontract votingContract {\n  ///Define the Persona of a user with all possible features\n  /// @inherit doc\tCopies all missing tags from the base function (must be followed by the contract name)\n\n    struct Voter{\n      uint weight;\n      bool voted;\n      address delegate;\n      uint vote;\n    }\n\n    struct Proposal {\n      bytes32 name;\n      uint votecount;\n    }\n\n    address public chairPerson;\n    \n    Proposal [] public allProposals;\n\n    mapping (address=>Voter) public Voters;\n\n  constructor(bytes32 ProposalNames) public {\n    chairPerson = msg.sender; // The chairperson is the sender\n    Voters[chairPerson].weight = 1;\n\n    for (uint i = 0; i < ProposalNames.length; i++) { \n      /// @notice Explain to an end user what this does\n      /// @dev Explain to a developer any extra details\n      /// @return Documents the return variables of a contracts function state variable\n      /// @inheritdoc\tCopies all missing tags from the base function (must be followed by the contract name)\n\n      allProposals.push(Proposal({name:ProposalNames[i],votecount:0}));\n    }\n  }\n\n    function allowToVote (address voter) external {\n      /// @notice Explain to an end user what this does\n      /// @dev Explain to a developer any extra details\n      /// @param Documents a parameter just like in doxygen (must be followed by parameter name)\n      /// @return Documents the return variables of a contracts function state variable\n      /// @inheritdoc\tCopies all missing tags from the base function (must be followed by the contract name)\n      require(chairPerson == msg.sender,\"Only Admin has the right to Vote\");\n      require(!Voters[voter].voted,\"Voter already Voted\");\n      require(Voters[voter].weight == 0);\n      Voters[voter].weight = 1;\n    }\n\n\n    function delegate(address to) external{\n      Voter storage sender = Voters[msg.sender];\n\n      require(!sender.voted,\"You've Voted Already\");\n\n      require(to != msg.sender,\"You cant delegate to yourself\");\n\n      while (Voters[to].delegate != address(0)){\n        to = Voters[to].delegate;\n        require(to != msg.sender);\n      \n      sender.voted=true;\n      sender.delegate = to;\n\n      }\n    }\n}\n",
  "sourcePath": "C:\\Users\\Joe-Bro\\VotingContract\\contracts\\votingContract.sol",
  "compiler": {
    "name": "solc",
    "version": "0.8.11+commit.d7f03943.Emscripten.clang"
  },
  "schemaVersion": "3.4.4",
  "updatedAt": "2022-04-28T20:02:26.762Z",
  "devdoc": {
    "author": "Joseph Adewunmi",
    "kind": "dev",
    "methods": {},
    "title": "Voting Contract",
    "version": 1
  },
  "userdoc": {
    "kind": "user",
    "methods": {},
    "notice": "A voting contract that allows",
    "version": 1
  }
}